S0030000FC
S3251000000000FF0200028001010000000001000000F0000000000000C6DEDEDEDEDEDEDEDE9E
S32510000020DEDEDEDEDEDEDEDEDEDEDEDEDEDEDEDEDEDEDEDEDEDEDEDEDEDEDEDEDEDEDEDEEA
S32510000040DEDEDEDEDEDEDEDEDEDEDEDEDEDEDEDEDEDEDEDEDEDEDEDEDEDEDEDEDEDEDEDECA
S32510000060DEDEDEDEDEDEDEDEDEDEDEDEDEDEDEDEDEDEDEDEDEDEDEDEDEDEDEDEDEDEDEDEAA
S32510000080DEDEDEDEDEDEDEDEDEDEDEDEDEDEDEDEDEDEDEDEDEDEDEDEDEDEDEDEDEDEDEDE8A
S325100000A0DEDEDEDEDEDEDEDEDEDEDEDEDEDEDEDEDEDEDEDEDEDEDEDEDEDEDEDEDEDEDEDE6A
S325100000C0DEDEDEDEDEDEDEDEDEDEDEDEDEDEDEDEDEDEDEDEDEDEDEDEDEDEDEDEDEDEDEDE4A
S325100000E0DEDEDEDEDEDEDEDEDEDEDEDEDEDEDEDEDEDEDEDEDEDEDEDEDEDEDEDEDEDEDEDE2A
S325100001004029000801040010E93B0008E53B0008ADC30010ADC30010ADC30010ADC30010EF
S32510000120ADC30010ADC30010ADC30010BBC30010ADC30010ADC3001005160008ADC30010F8
S3251000014044202040E13B000881130008BDBE0010E3BE0010DD130008F542001025BF001096
S3251000016027BF001029BF00102BBF00102DBF00102FBF001031BF001033BF001035BF001081
S325100001802601010110072021000000000000000000000000000000000000000000000000C8
S325100001A0DEDEDEDEDEDEDEDEDEDEDEDEDEDEDEDEDEDEDEDEDEDEDEDEDEDEDEDEDEDEDEDE69
S325100001C0DEDEDEDEDEDEDEDEDEDEDEDEDEDEDEDEDEDEDEDEDEDEDEDEDEDEDEDEDEDEDEDE49
S325100001E0DEDEDEDEDEDEDEDEDEDEDEDEDEDEDEDEDEDEDEDEDEDEDEDEDEDEDEDEDEDEDEDE29
S32510000200994E9A4FE846BD46994F81B00097B545FBD1C546704700BF00BF00BF00BF00BFD4
S3251000022000BF00BF00BF00BF00BF00BF00BF00BF00BF00BF00BF00BF00BF00BF00BF00BFB8
S3251000024000BF00BF00BF00BF00BF00BF00BF00BF00BF00BF00BF00BF00BF00BF00BF00BF98
S3251000026000BF00BF00BF00BF00BF00BF00BF00BF00BF00BF00BF00BF00BF00BF00BF00BF78
S3251000028000BF00BF00BF00BF00BF00BF00BF00BF00BF00BF00BF00BF00BF00BF00BF00BF58
S325100002A000BF00BF00BF00BF00BF00BF00BF00BF00BF00BF00BF00BF00BF00BF00BF00BF38
S325100002C000BF00BF00BF00BF00BF00BF00BF00BF00BF00BF00BF00BF00BF00BF00BF00BF18
S325100002E000BF00BF00BF00BF00BF00BF00BF00BF00BF00BF00BF00BF00BF00BF00BF00BFF8
S325100003005C4880F30988022080F31488BFF36F8F57485949574A914202DA08600431FAE72F
S32510000320704700BF00BF00BF00BF00BF00BF00BF00BF00BF00BF00BF00BF00BF00BF00BFBF
S3251000034000BF00BF00BF00BF00BF00BF00BF00BF00BF00BF00BF00BF00BF00BF00BF00BF97
S3251000036000BF00BF00BF00BF00BF00BF00BF00BF00BF00BF00BF00BF00BF00BF00BF00BF77
S3251000038000BF00BF00BF00BF00BF00BF00BF00BF00BF00BF00BF00BF00BF00BF00BF00BF57
S325100003A000BF00BF00BF00BF00BF00BF00BF00BF00BF00BF00BF00BF00BF00BF00BF00BF37
S325100003C000BF00BF00BF00BF00BF00BF00BF00BF00BF00BF00BF00BF00BF00BF00BF00BF17
S325100003E000BF00BF00BF00BF00BF00BF00BF00BF00BF00BF00BF00BF00BF00BF00BF00BFF7
S3251000040072B61E480021C94301601D4801601D48016010480E49104A0023CC58C4501B1D82
S325100004209A42FAD10F490A680A4B1A640B490860BFF34F8F0A490860BFF34F8FFFF7E0FEF7
S325100004400BF099FFFFF75CFF0F4FB847000000BF00010010000800088000000008ED00E010
S325100004602011204044202040402700084029000805B1C1A5402B0008402900085000214080
S3251000048054002140580021405BBF0010B94A535C125C9A18FF2A05D90132D2B2002805D120
S325100004A0002007E01206120E0028F9D00029F7D0B148805C7047000030B5B04A8D18AC78D2
S325100004C0A107890F09180B79611C8907890F09180A79A11C8907890F0918013CA407A40F37
S325100004E0241809792479037142718171C4712C79A107890F09180B7A611C8907890F0918EC
S325100005000A7AA11C8907890F0918013CA407A40F2418097A247A037242728172C472AC79CC
S32510000520A107890F09180B7B611C8907890F09180A7BA11C8907890F0918013CA407A40FD2
S325100005402418247B097B037342738173C47330BD0000F0B58FB00990034607468848016897
S325100005600E910C331E4608373A46101F022502A9019009980AACEDC101A90DC91778049A20
S325100005801D7812780092067839460220FFF77EFF089031460320FFF779FF08994140009AA6
S325100005A069405140217031460220FFF76FFF089029460320FFF76AFF0899009A4140514087
S325100005C07940217129460220FFF760FF089000990320FFF75BFF089A42407A40724022720C
S325100005E000990220FFF752FF089039460320FFF74DFF089A42405640754001A925732DC9C0
S325100006005178009147785E786D780220FFF73EFF089039460320FFF739FF089A424072405D
S325100006206A40627039460220FFF730FF089031460320FFF72BFF08994140009A694051401A
S32510000640617131460220FFF721FF089029460320FFF71CFF0899009A4140514079406172EF
S3251000066029460220FFF712FF054600990320FFF70DFF45406F407E4001A966736DC9911C6B
S3251000068002340230023301AA02352BC2721E059200D071E70AA8099B0178197041785970AF
S325100006A081789970C178D970017919714179597181799971C179D971017A079801700CA851
S325100006C04178079841700CA88178079881700CA8C1780798C1700DA80178069801700DA80F
S325100006E04178069841700DA88178069881700DA8C1780698C17022480E990268914201D0C3
S325100007000BF09AFE0FB0F0BDF0B58EB00890054606461B48321D01680D9100210C352C4625
S32510000720083601A833467EC009AC089A01AB23CB175C049A0E7812782D78009239460E200F
S32510000740FFF7A4FE079031460B20FFF79FFE079A4240079229460D20FFF798FE079A424018
S32510000760079200990920FFF791FE079A4240227008E000BFA4450110A44601109C45011040
S325100007805815000831460E20FFF780FE079029460B20FFF77BFE079A4240079200990D2093
S325100007A0FFF774FE079A4240079239460920FFF76DFE079A4240227129460E20FFF766FE49
S325100007C0079000990B20FFF761FE079A4240079239460D20FFF75AFE079A4240079231466A
S325100007E00920FFF753FE079A4240227200990E20FFF74CFE394607460B20FFF747FE31460C
S3251000080047400D20FFF742FE294647400920FFF73DFE4740277301AA01342BCA6E1C5D1C8F
S325100008204B1C421C01A86CC0042A00DA7DE709A8089B017819704178597081789970C17889
S32510000840D970017919714179597181799971C179D971017A069801700BA8417806984170E4
S325100008600BA88178069881700BA8C1780698C1700CA80178059801700CA841780598417076
S325100008800CA88178059881700CA8C1780598C1709F480D990268914201D00BF0CDFD0EB02E
S325100008A0F0BDF0B599B09A4B1A681892027814AD0E922A70427800230D922A7184780B9350
S325100008C02C72C3782B7302790C926A7042790A926A7182792E1D06B46A72C57912957572BE
S325100008E0077A16ADAF70457A1595B570857A1495B571C57A1195B572067B16ADEE70457BB5
S3251000090017A9CD70817B18AA1391D170C07BD07106BC01B40F9808700E9808710D98487093
S325100009200B980C72487111980B73487314984A72887113988F7088721098CE708873129855
S32510000940CD71C87201BC734A042408920A46C87314AB11931F791E7A58781D7B0F905879D7
S325100009600E90587A0D90587B0C9098780A9098791090987A0990987B0390D8780490D87904
S325100009800590D87A06900C320292D87B0A46083201920790604A187812901392069A08982A
S325100009A0825C574092B40A9A825C5640079A825C5540089A825C14A81AC80E985A40235C5D
S325100009C05A4001300A70D3B217AA159312780E90039210AC0BCC5340DBB24F407040C1B2AC
S325100009E010A8FAB20EC00F986840C4B20D985840C7B213980F945040C2B20C980D97484012
S32510000A00C1B206986040C3B207987840C0B20790089813925040C0B2089009980C91484095
S32510000A20C0B209900A9806935840C0B20A9092BCE217930FE3189B089207920FA2189208A1
S32510000A409200A21A180101B4431801989854D3181F71029B01BCE0B41B18059F9E543B18FF
S32510000A60601C9D54C217930FC3189B089207920F821892089200821A18014318129D9D544A
S32510000A80D318119D1D71049E3318109D9D543B180F989854A01CC217930FC3189B0892075A
S32510000AA0920F821892089200821A180143180D9D9D54D318139D1D7133180C9D9D543B18AD
S32510000AC006989854E01CC217930FC3189B089207920F821892089200821A18014318079DCD
S32510000AE09D54D318089D1D713318099D9D543B180A98985404342C2CE0BC00DA4EE7044A85
S32510000B0018981168884201D00BF096FC19B0F0BD58150008A4470110A44901100000F0B5E4
S32510000B209EB017911892784909681D91239915931691002800D00EE20B90984201D300F0F3
S32510000B4079FC1798714D0646A0300E90071D0830011D11AA0836C3C2331D109320B40C9880
S32510000B60199A0001815C80181AAA0D91117042781BA90A7083780E920B930B71C3780D1D41
S32510000B8008930B7203790A1F5370427909934A70837907934B71C3790A9205934B72037AB2
S32510000BA00A1F06939370447A8C70867A8E71C77A8F72037BD370427BCA70817BE970C07B17
S32510000BC001B4E871199805780E9845401BA8057019980E9545780A9845401BA845701998FF
S32510000BE00A958578079845401BA807958570199DE878119043401BA8C3702B790F984340CD
S32510000C001CA80F9303706B790B9843401CA80B934370AB795C408470EC796240C27015982C
S32510000C2004780C9844401DA8047015980C944478089844401DA844701598089484781DA811
S32510000C40664086701598C4781DA86140C170129909980C7844401EA8099404704C780698D5
S32510000C6044401EA8069444708C7867408770CC7821BC1CA96040C870012019AC6678039609
S32510000C8026790896E6790296267A0496667A0596A67A0F900796E67A20780696267BA178AB
S32510000CA00A96667BE2780996A67B63790C96E67BA7790D96285C039E2070765D66706E5CB9
S32510000CC0A670AE5CE670089E0A9AAE5D2671EE5C6671EE5D029BA671EE5C049BE671EE5CF2
S32510000CE0059B2672EE5C079B6672EE5C069BA672EE5CE672AE5C09982673405D60730C98E5
S32510000D000D9905E00000000058150008A4470110405DA073685CE07320460021FFF7CCFBB6
S32510000D202046FFF716FC0F9817990001461820783178484020706178727851400391617067
S32510000D40A178B2785140A170E278F3785A40E270237937797B4008932371637977797B402A
S32510000D600FB46371B079A7794740A771F179E27951400691E171237A317A59400891217292
S32510000D80607A717A414009916172A07AB17A48400B90A072E07AF17A48400A90E072207B3C
S32510000DA0317B48400E902073607B717B48400D906073A07BB17B48401090A073E07BF67BAB
S32510000DC070401190E0731398013013900A280FBC00DA6FE719AA1078285C10705078285C12
S32510000DE050709078285C9070D078285CD0701079285C10715079285C50719079285C90715B
S32510000E00D079285CD071107A285C1072507A285C5072907A285C9072D07A285CD072107BE3
S32510000E20285C1073507B285C5073907B285C9073D07B0021285CD0731046FFF73DFB0E9B91
S32510000E4019AA1078197848401070547859784C405470947899784C409470D478D9784C40D5
S32510000E60D4701479149A11781AAA4C4014705478149A51781AAA4C4054709478149A917866
S32510000E801AAA4C409470D478149AD1781AAA4C40D4701479119A11781BAA4C4014705478AF
S32510000EA0119A51781BAA4C4054709478119A91781BAA4C409470D478119AD1781BAA4C40ED
S32510000EC0D4701479129A11781CAA4C4014705478129A51781CAA4C4054709478129A917808
S32510000EE01CAA4C409470D478129AD1781CAA4C40D4700B99169A0C01A054A4181AAA107852
S32510000F0060701079A070107A043AE0705078207150796071507AA071507BE07190782072B6
S32510000F2090796072907AA072907BE072D0782073D0796073D07AA073D07BE073481C159943
S32510000F400B90884200D209E6F8491D980B68984200D176E273E204781D4643788778427940
S32510000F60C6780192827901790492C2790592027A0692427A0792827A0892C27A0992027B5A
S32510000F800A92427B0C92827B0D92C27B0F9200200B90A84200D34DE217980246A0300E90BE
S32510000FA00430149004301190E14D043008321290179813920C3010900B98189A0001801812
S32510000FC00278544019AA147042785A401AAB1A70837800927B401BAA02931370C27856400E
S32510000FE01CAA0396167006794E400C3A56704779019A57401AAA57708379049A53401BAA6E
S3251000100004935370C379059A53401CAA05935370037A069A534019AA9370427A07994A4075
S325100010201AA907928A70827A08994A400CB41DA98A70C17A0B9B59401EAB0B919970017B39
S325100010400C9A51401BAAD170427B0C920CBC03B40C980E9941401CA8C17000980C91807B72
S325100010600F990E9041401DA80F91C17001BC1099C07B48401DA9C87002BC21B4199D2878ED
S32510001080119044401BA804706C7866404670AC7863408370EC786140C1702C7902984440EB
S325100010A01CA804706C7967404770AC79099844401CA809948470EC790C9844401CA8C4707B
S325100010C015980C94047804AE2BCE44401DA804940470159844785C401DA80694447015986C
S325100010E084781DA8624082701598129AC4780F9844401DA80F94C47014784C400594047103
S3251000110054786C400794447194780B9844401EA80B948470D47821BC60401CA919ACC870DA
S3251000112026780C9666780896A6780A96E6780120099626790F90059666790796A679A07A73
S325100011400696E679E17A0496267A227B0396667A637B0296E67BA77B0D960C9E765D267024
S32510001160089E765D66700A9E765DA670099E765DE670059E765D2671079E765D6671069EA9
S32510001180765DA671049E765DE671039E765D2672029E765D66722E5CA6726E5CE672AE5C5E
S325100011A0E85C0D996073E85D2673A073685CE07320460021FFF780F92046FFF7CAF90F9898
S325100011C0179A000186182178307841400C91217061787078414008916170A178B07841404B
S325100011E00A91A170E178F07841400991E17021793079414005912171617970794140079138
S325100012006171A179B07941400691A171E179F07941400491E171217A307A41400391217261
S32510001220617A707A414002916172A07AB17A484001B4A072E17AF27A5140E172227B337B62
S325100012405A402273637B707B43406373A77BB07B4740A773E07BF67B70400E90E073109824
S32510001260013010900A2801BC00DA76E719AA1078285C10705078285C50709078285C90707A
S32510001280D078285CD0701079285C10715079285C50719079285C9071D079285CD071107A6A
S325100012A0285C1072507A285C5072907A285C9072D07A285CD072107B285C1073507B285C81
S325100012C05073907B285C9073D07B0021285CD0731046FFF7F1F80E9B19AA1078197848402E
S325100012E01070547859784C405470947899784C409470D478D9784C40D4701479149A11788D
S325100013001AAA4C4014705478149A51781AAA4C4054709478149A91781AAA4C409470D47829
S32510001320149AD1781AAA4C4004E000BF58150008A4470110D4701479119A11781BAA4C40E6
S3251000134014705478119A51781BAA4C4054709478119A91781BAA4C409470D478119AD17849
S325100013601BAA4C40D4701479129A11781CAA4C4014705478129A51781CAA4C4054709478C7
S32510001380129A91781CAA4C409470D478129AD1781CAA4C40D4700B99169A0C01A054A41844
S325100013A01AAA107860701079A070107A043AE0705078207150796071507AA071507BE07160
S325100013C09078207290796072907AA072907BE072D0782073D0796073D07AA073D07BE07317
S325100013E00C32481C15990B90884223D219A804780379077A4178407901901BA840781678E7
S3251000140004905078059019A8807806901AA8807807901BA8807808909078099019A8C07838
S325100014200A901AA8C0780C901BA8C0780D90D0780F90C1E5F5491D980B68984201D00AF036
S32510001440FBFF1EB0F0BDF0B593B0054604460BA8164662C0ED4800681290189803900A9334
S32510001460201C00D07CE10490984201D300F098FC0B9802460830011D0591E54DA0320690B6
S3251000148008929C300990049803010D9819180B780EA803704B7803718B780372CB780373AD
S325100014A00B7943704B7943718B794372CB7943730B7A83704B7A83718B7A8372CB7A83734E
S325100014C00B7BC3704B7BC3718B7BC372CB7BC37300210220099F0FAC089B01B48E000FAA47
S325100014E096190892327818784240AA5C3270727858784240AA5C7270B27898784240AA5C43
S32510001500B270F278D8784240AA5CF27026783A785640AE5D267066787A785640AE5D667021
S32510001520A678BA785640AE5DA670E678FA785640AE5DE670083708340833023101BC0138E8
S32510001540CBD107980121FEF7B7FF0926079C0B9833012278195C1B184A40227062785978BB
S325100015604A406270A27899784A40A270E278D9784A40E270227919794A40227162795979B4
S325100015804A406271A27999794A40A271E279D9794A40E271227A197A4A402272627A597A88
S325100015A04A406272A27A997A4A40A272E27AD97A4A40E272227B197B4A402273627B597B5C
S325100015C04A406273A27B997B4A40A273E27BDB7B5A40E2732046FFF797F82378EB5C2370C4
S325100015E06378EB5C6370A378EB5CA370E378EB5CE3702379EB5C23716379EB5C6371A379EC
S32510001600EB5CA371E379EB5CE371237AEB5C2372637AEB5C6372A37AEB5CA372E37AEB5CD3
S32510001620E372237BEB5C2373637BEB5C6373A37B2046EB5CA373E37B0121EB5CE373FEF7D6
S325100016403BFF013E002E82DC0EA804780B9803780EA85C40047046780B98407846400EA804
S32510001660467086780B98807846400EA88670C6780B98C07846400EA8C67006790B980079AD
S3251000168046400FA8067046780B98407946400FA8467086780B98807946400FA88670C67869
S325100016A00B98C07946400FA8C67006792C388CC83878464010A8067046787878464010A83E
S325100016C046708678B878464010A88670C678F878464010A8C67006791878464011A80670F6
S325100016E046785878464011A8467086789878464011A88670C678D878464011A8C670039870
S3251000170013011C541E180FA8037873700379B370037A0438F3704378337143797371437A6D
S32510001720B371437BF3718378337283797372837AB372837BF372C3783373C3797373C37A07
S32510001740B373C37BF373501C0A990490884200D299E62E48129B0068834200D127E324E3B9
S3251000176013780EAC23705378237193782372D3782373137963705379637193796372D3796F
S325100017806373137AA370537AA371937AA372D37AA373137BE370537B201DC370937BC371F6
S325100017A0D37B0022C3720692194D04460220A03108910B460F1D0997069E0EA9B6000791D4
S325100017C0725C8E1919784A40AA5C3270727859784A40AA5C7270B27899784A40AA5CB270A1
S325100017E0F278D9784A40AA5CF27026783A785640AE5D267066787A785640AE5D6670A6783A
S32510001800BA785640AE5DA67004E000BF58150008A4480110E678FA785640AE5DE6700837AE
S325100018200834069A0833023206920138C4D107980121FEF741FE0926079C0B9833011F180C
S3251000184023783A785340237063787A7853406370A378BA785340A370E378FA785340E37026
S3251000186023793A795340237163797A7953406371A379BA795340A371E379FA795340E371FA
S32510001880237A3A7A53402372637A7A7A53406372A37ABA7A5340A372E37AFA7A5340E372CE
S325100018A0237B3A7B53402373637B7A7B53406373A37BBA7B5340A373E37BFF7B7B40E37375
S325100018C00EA8FEF721FF2378EB5C23706378EB5C6370A378EB5CA370E378EB5CE3702379B7
S325100018E0EB5C23716379EB5C6371A379EB5CA371E379EB5CE371237AEB5C2372637AEB5CF5
S325100019006372A37AEB5CA372E37AEB5CE372237BEB5C2373637BEB5C6373A37B0EA8EB5CD9
S32510001920A373E37B0121EB5CE373FEF7C5FD013E002E82DC0EA804780B9803780EA85C403A
S32510001940047043780B98407843400EA8437083780B98807843400EA88370C3780B98C07823
S3251000196043400EA8C37003790B98007943400FA8037043780B98407943400FA843708378A1
S325100019800B98807943400FA88370C3780B98C07943400FA8C3700B9906910379087A434028
S325100019A010A8037043780698407A434010A8437083780698807A434010A88370C37806984B
S325100019C0C17A0830069010A84B40C3700B9905910679087B464011A8067046780598407B6B
S325100019E0464011A8467086780598807B464011A88670C6780598C17B0C30059011A84E40E2
S32510001A00C6700C980399067874400C700C9843780FA8047863404B700C98837810A80478C9
S32510001A2063408B700C98C37811A804786340CB700C9803790EA8447863400B710C984379EF
S32510001A400FA8447863404B710C98837910A8447863408B710C98C37911A844786340CB71B7
S32510001A600C98037A0EA8847863400B720C98437A0FA8847863404B720C98837A10A8847894
S32510001A8063408B720C98C37A11A884786340CB720C98037B0EA8C47863400B730C98437B83
S32510001AA00FA8C47863404B730C98837B10A8C47863408B730C98C37B11A8C47863400120EA
S32510001AC0CB730A990490884200D369E10D980EA9103800900791481C0C90049803010D9883
S32510001AE01A18195C0EA801705178017191780172D17801731179417051794171917941721A
S32510001B00D1794173117A8170517A8171917A8172D17A8173117BC170517BC171917BC17241
S32510001B20D37BC37300210220099F0FAC089B01B48E000FAA96190292327818784240AA5CC1
S32510001B403270727858784240AA5C7270B27898784240AA5CB270F278D8784240AA5CF27021
S32510001B6026783A785640AE5D267066787A785640AE5D6670A678BA785640AE5DA670E6781C
S32510001B80FA785640AE5DE670083708340833023101BC0138CBD101980121FEF78DFC0927E2
S32510001BA0019C0B983E012378325C3618534023706378727853406370A378B2785340A370DD
S32510001BC0E378F2785340E37023793279534023716379727953406371A379B2795340A371BA
S32510001BE0E379F2795340E371237A327A53402372637A727A53406372A37AB27A5340A3728E
S32510001C00E37AF27A5340E372237B327B53402373637B727B53406373A37BB27B5340A37361
S32510001C20E37BF67B7340E3730EA8FEF76DFD2678AE5D26706678AE5D6670A678AE5DA67064
S32510001C40E678AE5DE6702679AE5D26716679AE5D6671A679AE5DA671E679AE5DE671267A0B
S32510001C60AE5D2672667AAE5D6672A67AAE5DA672E67AAE5DE672267BAE5D2673667BAE5DB1
S32510001C806673A67B0EA8AE5DA673E67B0121AE5DE673FEF711FC013F002F82DC0EAA0B9948
S32510001CA0147808784440147054784878444054709478887844409470D478C8784440D4703E
S32510001CC0147908794440147154794879444054719479887944409471D479C8794440D47112
S32510001CE00699147A087844401472547A487844405472947A887844409472D47AC878444095
S32510001D00D47205990832101D14790A785440047044784A785440447084788A7854408470FF
S32510001D20C478C9784C40C4700C9F049902200A01111D079B27B4049C079D5619A05C141954
S32510001D401A785040307060781A7950407070A0781A7A5040B070E478187B4440F470049801
S32510001D600C1820783A7850404E1948556078397948407070A078397A4840B070E478387BD7
S32510001D804440F470023727BC0831023308320138D0D1049801300A990490884200D29CE685
S32510001DA0AD48129B0068834201D00AF045FB13B0F0BD0000F0B5AEB007460C4615461E4662
S32510001DC0A54908682D9001A92046FEF76AFD0096339B2A4601A93846FEF7A1FE9E4A2D9829
S32510001DE01168884201D00AF027FB2EB0F0BDF0B5AEB00C461546984A11682D9101A9FEF7AA
S32510001E0050FD964A009401A910460123FEF787FE2378802102270B4046D11E460F20811B57
S32510001E20625C500018436054D3090E20811B625C500018436054D3090D20811B625C5000F9
S32510001E4018436054D3090C20811B625C500018436054D3090B20811B625C500018436054DC
S32510001E60D3090A20811B625C500018436054D3090920811B625C500018436054D3090820CB
S32510001E80811B625C500018436054D3090836013FC4D11022214628460AF0B8FA2078802198
S32510001EA0084000D08EE049E000231E460F20811B625C500018436054D3090E20811B625C8A
S32510001EC0500018436054D3090D20811B625C500018436054D3090C20811B625C50001843BE
S32510001EE06054D3090B20811B625C500018436054D3090A20811B625C500018436054D309BD
S32510001F000920811B625C500018436054D3090820811B625C500018436054D3090836013FB2
S32510001F20C4D1E07B872148401022E073214628460AF06CFA20788021084043D1024603468B
S32510001F4002240F26F01A295C4F003A432A54CA090E20C01A295C4F003A432A54CA090D208D
S32510001F60C01A295C4F003A432A54CA090C20C01A295C4F003A432A54CA090B20C01A295C9D
S32510001F804F003A432A54CA090A20C01A295C4F003A432A54CA090920C01A295C4F003A4314
S32510001FA02A54CA090820C01A295C4F003A432A54CA090833013CC5D1274A2D98116888428F
S32510001FC04ED046E03A463B4602240F26F01A295C4F003A432A54CA090E20C01A295C4F00C3
S32510001FE03A432A54CA090D20C01A295C4F003A432A54CA090C20C01A295C4F003A432A547F
S32510002000CA090B20C01A295C4F003A432A54CA090A20C01A295C4F003A432A54CA09092061
S32510002020C01A295C4F003A432A54CA090820C01A295C4F003A432A54CA090833013CC5D15C
S32510002040E87B8721044A4840E8732D981168884206D00AF0F1F903E058150008D4490110E6
S325100020602EB0F0BDF0B5AEB007460C4615461E46A34908682D9001A92046FEF712FC00969C
S32510002080339B2A4601A93846FFF7DDF99C4A2D981168884201D00AF0CFF92EB0F0BDF0B547
S325100020A0BFB0019007461E46954803683E9314460EAA0D460AA93846FFF799FE914F10220B
S325100020C0394602A80AF0A2F91022394630460AF09DF9102C00D28FE016D902AF019812A904
S325100020E0FEF7DFFB00962A4612A938460123FEF716FD1022314638460AF088F91035103C5D
S32510002100102CEBD8102C77D11022294606A80AF07DF902AB197820331A785140203B1970CF
S32510002120597820335A785140203B5970997820339A785140203B9970D9782033DA785140EC
S32510002140203BD970197924331A785140203B1970597820335A785140203B597099782033C6
S325100021609A785140203B9970D9782033DA785140203BD970197924331A785140203B197027
S32510002180597820335A785140203B5970997820339A785140203B9970D9782033DA7851408C
S325100021A0203BD970197924331A785140203B1970597820335A785140203B59709978203366
S325100021C09A785140203B9970D9782033DA785140203BD970019812A9FEF763FB12A90096BF
S325100021E006AA02A80123FEF79AFC45483E990268914200D181E07EE006A82407240F04215E
S325100022000AF086F92246294606A80AF0FFF806A9802202AB0A55197830331A785140303BDA
S325100022201970597830335A785140303B5970997830339A785140303B9970D9783033DA78A3
S325100022405140303BD970197934331A785140303B1970597830335A785140303B5970997837
S3251000226030339A785140303B9970D9783033DA785140303BD970197934331A785140303BFC
S325100022801970597830335A785140303B5970997830339A785140303B9970D9783033DA7843
S325100022A05140303BD970197934331A785140303B1970597830335A785140303B59709978D7
S325100022C030339A785140303B9970D9783033DA785140303BD970019812A9FEF7E2FA12A943
S325100022E0009606AA02A80123FEF719FC04483E990268914201D00AF09FF83FB0F0BD00BF8D
S3251000230058150008D4490110000000000268002A01D110461EE0510120399200105800287D
S3251000232017D00131400814D00131400811D0013140080ED0013140080BD00131400808D0E8
S325100023400131400805D00131400802D001314008E7D108467047016800290AD1416B012952
S3251000236007D1816B012904D1806E002801D1084600E00020704701688A0013588218002B74
S3251000238007D104E0043A13680139002B01D10029F8D101607047F0B585B00C46194601AB3A
S325100023A0054636C300230124111D021D01981E460568AC422BD8039D281D039F1D463F6842
S325100023C0BC4200D8056801B403981F460068844201BC00D80F6803B4E81B811B1160A94203
S325100023E003BC0BD337430AD001260432019F043104303D680134AC42DFD908E01E4604326E
S32510002400019F043104303D680134AC42D5D90498012E056021D1071D0198021D0068344647
S3251000242086421AD8386816681B18F6183E6086420BD81068864208D80123019804370432D6
S32510002440006801348442EDD907E00023019804370432006801348442E4D90498FFF78BFFED
S3251000246005B0F0BDF0B588B007900691054600200B681468171DA3420BD90D4603A922461B
S325100024802CC101230799019304310091002C0CD181E019461E462346144603AA1AC201237E
S325100024A00193291D0091002E75D00399CB0802935BD0069A111D019ADB00D21801920646EC
S325100024C03D680B6832465B1952411B180098344603607D684B6872415B1964419B187441DB
S325100024E0224643608B68BD6834465B1964419B18744122468360CB68FD6834465B19644132
S325100025009B1874412246C3600B693D6934465B1964419B187441224603614B697D693446BD
S325100025205B1964419B187441224643618B69BD6934465B1964419B18744122468361CB6963
S32510002540FD6934465B1964419B18024674412031203720320092029AC361013A029220463B
S32510002560AED10199039A914215D801998A0006998D18002402CD224608CF009EC918524123
S325100025800B18624108C60096019E10460136039901968E42EED9019C0799A2008F180599E1
S325100025A0049B8A189C4245D81B1B0133D90835D0019CCB00E4180194156800262B187641E3
S325100025C03B605068002583196D417B60936800245B19BB60D36864411B190024FB60644162
S325100025E0234614690026E3183B617641334654690026E31876417B6194690025A3196D41F5
S32510002600BB61D36900205B194041FB61203220370139D1D10199049B99420BD802CA00266D
S325100026200B18764108C7019930460131049B01919942F3D90799049A0A60C0B208B0F0BD42
S3251000264070B50C6803680022A34202D303D901201BE0D04319E09C0009190019D643002B65
S3251000266012D00FE005680C68A54206D306D9012204390438013B05D106E03246043904386E
S32510002680013B01D0002AEDD0104670BDF0B585B00290019100920C4600210125061D1368E6
S325100026A0171D9D4213D8221D08CA002401CF181AA441049403900024431A0498A041C107F9
S325100026C0C90F08C60098013503689D42ECD90298AB00C6180198C71803689D420ED8012273
S325100026E008CF0020039304905B1A01468941114008C60198013503689D42F1D902986B1EF8
S325100027000360FFF738FE05B0F0BD70B51C460546FFF7A8FE2B680646591C8800226828189E
S32510002720914206D8002308C0226801319142FAD92B68934209D2012E07D1013398002B60E4
S3251000274046512846FFF717FE0FE021462846FFF777FF002801DA012E04D1224629462846D7
S32510002760FFF794FF2846FFF706FE70BDF0B582B00190CF480B6842689A422CD8CC48009005
S325100027807CC82F461546224602B400209C006458B44022430299AC006458944202BC03D8AE
S325100027A001D3002F00D00120A41AAA00E41B019FD4510746321E05D09A002024A41B52582A
S325100027C0E4B2E2400135086801338342DCD90098144629469AC002B0F0BDF0B582B0019055
S325100027E0B34D5009D706FF0E2F610A680090561C6E6083192B600A680024964202D8B4008B
S325100028006458BC40AC60002F0AD0012E08D90A1FB000801820220068D21BD0400443AC605A
S32510002820019800220068834202D801989A001258944206D1013E6E60013B2B60002EDAD1C9
S3251000284009E00520944200D90420721E6A60013B2B60042816D00022AA60EA600098421CE2
S325100028602A6001226A600198FFF780FFE968AA6889182A6801989200E96083585B1A835090
S325100028800021E96002B0F0BD70B50D460446FFF73DFD06462846FFF739FD002801D1206007
S325100028A00EE0B04209D8301A461C013E324629462046FFF792FF002EF7D12046FFF75BFDD8
S325100028C070BDF0B5A7B0044609AD10461BC57948006826900968106807910690411808919B
S325100028E00024254604948C4200D3C2E006982646471E04982C46874200D3071CC31B002519
S325100029000998BA008218111D0A989A008218101D00900798C31A781C984200D9181C05905F
S325100029200291C00803907ED01C3901910098029A0068002112680B4609F0FEFD002786191C
S3251000294079410C193946009849416D18019A4068394692693B4609F0EFFD86190098794148
S3251000296080680C1939464941019A6D18394652693B4609F0E1FD861979410C1939460098E4
S3251000298049416D18019AC068394612693B4609F0D3FD861979410C193946009849416D1867
S325100029A0019A00693946D2683B4609F0C5FD861979410C193946009849416D18019A406920
S325100029C0394692683B4609F0B7FD861979410C193946009849416D18019A806939465268D9
S325100029E03B4609F0A9FD861900987941C0690C1939464941019A6D18394612683B4609F0C6
S32510002A009BFD86190198794120380C197F410099ED192031009102992039029103990190A4
S32510002A200139039182D105984007400F059016D0009F029A3868002112680B4609F07CFD78
S32510002A400022861951410C195241AD18391D0091029904390291059901390591E8D104987B
S32510002A6087006F44BE63013008990490884200D23CE70699079A88180D900F4C0DA8FFF73D
S32510002A807AFC0B99012919D124686D20FF3024580DA8A0470D9CA400221D0C980DA909F0B3
S32510002AA0B5FC0448269C006884421CD019E000BF50160008581500084C160008022904D122
S32510002AC021689C310DA8FFF7DFFE0D9CA400221D0C980DA909F09AFC7048269C00688442E5
S32510002AE001D009F0A9FC27B0F0BD0000F0B5B6B005460F466949086835903846FFF72BFCA0
S32510002B0001280ED10022114606C56A662A660120624AE862286335981168884200D1BAE0D6
S32510002B20B7E05F4E3A46394633683933FF33683201A80446FFF72FFC336839463933FF339D
S32510002B403A46683220463430FFF7DFFD21462046224634320123FFF7B4FE336822460093AC
S32510002B6021463933FF3320469C30FFF7CEFD224639200099FF300B1821469C310846FFF723
S32510002B80C4FD20463A466832394634310123FFF798FE2246336821463933FF332046683044
S32510002BA0FFF7B3FD204622466832394634310123FFF787FE22462146204634300123FFF7BB
S32510002BC080FE33683933FF3322463432114628463430FFF79AFD3A46214620460123FFF73D
S32510002BE070FE33683933FF33224621462046FFF78CFD22469C321146204634300123FFF7F3
S32510002C0060FE336822463933FF33214634310846FFF7C1FB336822463933FF332146343166
S32510002C200846FFF7B8FB33683933FF332246343221462046FFF7AFFB2146204622469C3210
S32510002C400123FFF73EFE336821463933FF332A4634321046FFF79FFB2246683211462846E5
S32510002C6068300123FFF72DFE224668322946683108460123FFF725FE2846224668322146F5
S32510002C8034310123FFF71DFE044A35981168884201D009F0D1FB36B0F0BD00005815000888
S32510002CA04C1600080000000000000000F0B5BAB0044604920D46BD49086839900020206073
S32510002CC0606001206063A0630020A066E0661046FFF71CFB0390002800D12CE105A80746D5
S32510002CE006469C366837B249343001900091039A013A039221462046FFF7F8FE039B58095B
S32510002D00049A80001118D8064968C00EC140C80700D40CE12046FFF71EFB01281CD128684D
S32510002D2029468000021D204609F070FB686B29468000021D34312046343009F067FB2946CB
S32510002D40A86E68318000021D2046683009F05EFB03980028CBD1EEE02846FFF7FCFA2146D1
S32510002D60012819D120688000021D204609F04EFB606B8000021D21463431084609F046FB9D
S32510002D802146A06E68318000021D084609F03EFB03980028ABD1CEE005A82A4668323431E7
S32510002DA00123FFF78EFD21462A46683201980123FFF787FD22466832294634312046343010
S32510002DC00123FFF77EFD009805AA006839210B18FF33214634310846FFF7DDFA294620462E
S32510002DE0224668320123FFF76CFD0098392100680B18FF33019A21462046FFF7CCFA2A46F5
S32510002E0068322146683108460123FFF75AFD22463432114630460123FFF753FD3146304651
S32510002E20224668320123FFF74CFD00980168019A029139204318FF3311463846FFF765FCD6
S32510002E403A4639200299FF300B1821463846FFF75CFC2246394638460123FFF732FD22464D
S32510002E60394638460123FFF72CFD0098392100680B18FF333A4631463846FFF78CFA2146F5
S32510002E802246683210460123FFF71BFD21462246683210460123FFF714FD2146224668323F
S32510002EA010460123FFF70DFD2246214630460123FFF707FD019A314630460123FFF701FD7F
S32510002EC00098006839210B18FF333A4631463046FFF761FA32463046214634310123FFF79B
S32510002EE0F0FC22462146204634300123FFF7E9FC22462146343108460123FFF7E2FC05AA0F
S32510002F002146343108460123FFF7DBFC0098392100680B183146FF33224634321046FFF750
S32510002F203AFA3A46214620460123FFF7CAFC0398002800D0DBE61D4A39981168884201D07A
S32510002F4009F07AFA3AB0F0BDF0B5ABB001900292164803682A9303AD0B680024002B19D051
S32510002F605E1CF60816D0F40008682860486868608868A860C868E860086928614869686195
S32510002F808869A861C869E86120312035013EEBD19C4204D801C901C501349C42FAD9029D37
S32510002FA010A92B680024002B1ED003E0581500084C1600085E1CF60816D0F4002868086066
S32510002FC068684860A8688860E868C8602869086168694861A8698861E869C8612035203165
S32510002FE0013EEBD19C4204D801CD01C101349C42FAD901211D911E91019800210A4606C041
S325100030000399012900D0F4E1F0E1029A0846FFF729FA1D9A91001DAB5D18D7082ED02C4687
S325100030201C3C2E687108C00701432960A3695908F0070143A16166697108D80701436161A8
S3251000304023695908F00701432161E6687108D8070143E160A3685908F0070143A16066680F
S325100030607108D8070143616023685908F007014321601846203C203D013FD2D15407640F6D
S3251000308008D02B685908C007014329601846043D013CF6D11DA8FFF76EF90499C90700D5B3
S325100030A092E003990023880003AA1618CA082ED035461C3D37687808DB0703433360AC69D3
S325100030C06008FB0703436F69AB617808E30703432C696B616008FB070343EF682B61780822
S325100030E0E3070343AC68EB606008FB0703436F68AB607808E30703432C686B606008FB0720
S3251000310003432B602346203D203E013AD2D14D076D0F08D031684808DB07184330600B4617
S32510003120043E013DF6D103A8FFF725F91E9BDB07DB0F1DA900D068E71D9882008E18C20862
S325100031402ED035461C3D37687908DB070B433360AC696108FB070B436F69AB617908E30787
S325100031600B432C696B616108FB070B43EF682B617908E3070B43AC68EB606108FB070B431D
S325100031806F68AB607908E3070B432C686B606108FB070B432B602346203D203E013AD2D1D9
S325100031A045076D0F00D175E730684108DB07194331600346043E013DF6D11DA8FFF7DBF836
S325100031C00499C90700D16CE71199C907CB0F00D091E00098810010AA56180146C2082ED063
S325100031E035461C3D37687808DB0703433360AC696008FB0703436F69AB617808E3070343B2
S325100032002C696B616008FB070343EF682B617808E3070343AC68EB606008FB0703436F680E
S32510003220AB607808E30703432C686B606008FB0703432B602346203D203E013AD2D14907D1
S32510003240490F08D032685008DB07034333601346043E0139F6D110A8FFF78DF8019A516858
S32510003260C907C90F5ED10B46116888001618CA082ED035461C3D37687808DB070343336063
S32510003280AC696008FB0703436F69AB617808E30703432C696B616008FB070343EF682B61CB
S325100032A07808E3070343AC68EB606008FB0703436F68AB607808E30703432C686B606008E0
S325100032C0FB0703432B602346203D203E013AD2D14907490F6CD032685008DB070343336072
S325100032E01346043E0139F6D10198FFF744F81199C907C90F63D010A903A8FFF7A1F9029B3B
S3251000330010A9002865DB0A4603A90846FFF743F8029B019A1DA90846FFF73DF803990129BE
S3251000332067D163E0144611461046029AFFF79AF8226891006518D7082ED02C461C3C2E68FC
S325100033407108C00701432960A3695908F0070143A16166697108D807014361612369590886
S32510003360F00701432161E6687108D8070143E160A3685908F0070143A16066687108D80781
S325100033800143616023685908F007014321601846203C203D013FD2D15407640F08D02B6837
S325100033A05908C007014329601846043D013CF6D10198FEF7E0FF1199C907C90F9BD110988C
S325100033C00B46810010AA56180146C20800D136E706E703AA0846FEF7DEFF029B01991DAA26
S325100033E00846FEF7D8FF0399012902D1049B012B19D010980090012802D1119B012B0DD067
S32510003400002919D0049BDB0700D0DDE60023880003AA1618CA0800D179E649E601290BD1B3
S325100034200499012908D100241DA9019B1D9E01C901C30134B442FAD902990198FFF724FAC1
S32510003440C1482A990368994201D008F0F5FF2BB0F0BD00000000F0B50C461546016CD1610E
S32510003460C16B9161816B5161416B1161016BD160C16A9160816A5160416A1160016C2162FB
S32510003480C16BE161816BA161416B6161066B00210B46271D0A464EC7082121600160AB49C1
S325100034A0224607460E6833463933FF330146FFF72CF933463933FF33224639463846FFF7E0
S325100034C024F900202062E869E061A869A061686960612D6900231A46194607202FC4F0BDA2
S325100034E0F0B50C461546D16921629769103400210E460B46CAC4203C9168E1605168A160BF
S3251000350011686160082121609049224607460E6833463933FF330146FFF7F7F82868206258
S325100035206869E061E869A061A869606168692061E868E060A868A06068686060334608201C
S325100035403933FF332246206039463846FFF7DDF8A86820622B6810340020024601460FC41C
S32510003560203C6869E0602869A060E968082003C4F0BDF0B50C461546744ED16821625168C1
S32510003580E1610021A1616161D16921619169E1605169A16011696160336808213933FF339F
S325100035A02160224601460746FEF7F5FE286920620020E061A868A061686860612868206169
S325100035C0E869E060A869A06068696060336808203933FF332246206039463846FEF7DBFE8E
S325100035E0686920620020E061E868A061A8686061686820610020E060E869A060A9690820A3
S3251000360003C4F0BD70B59BB004464F4908681A9021680131192905D20023880003510131AF
S325100036201929FAD3494D0D910DAA69462046FFF712FF2E6833463933FF336A462146204634
S32510003640FFF763F833463933FF336A4621462046FFF75BF80DAA69462046FFF741FF3346AB
S325100036603933FF336A4621462046FEF794FE0DAA69462046FFF77DFF2B683933FF336A4673
S3251000368021462046FEF787FE2F4A1A981168884201D008F0D1FE1BB070BDF0B50C4615467D
S325100036A0016ED162C16D9162816D5162416D1162016DD161C16C9161816C5161416C1161F2
S325100036C0016CD160C16B9160816B5160416B1160002120340F460E460B460A46CEC4303CA2
S325100036E0016EA161C16D6161876D00210E460B460A46CEC4183C072121600C2101601349D0
S32510003700224607460E6833463933FF330146FEF7FCFF33463933FF33224639463846FEF7A9
S32510003720F4FFE86A2063A86AE062686AA062286A6062E8692062A869E0616869A0612869A7
S325100037406061E868206103E0581500084C160008A868E0606868A06029680C2003C4F0BDAE
S32510003760F0B50C461546116A2163D169E1629169A1625169616211692162D168E16191687A
S32510003780A1615168616111682161D16AE160916AA160516A61600C212160E04922460E68F2
S325100037A0074633463933FF330146FEF7AEFFE8692063A869E0626869A06228696062E86809
S325100037C02062A868E0616868A06128686061286A20610021E160EA6A0C2007C433460C3C5D
S325100037E03933FF33224639463846FEF78EFF002024340346024601460FC4343CE86A2062C7
S32510003800A86AE061686AA0612E6A00252B462A46294608206FC4F0BDF0B50C4615460021E4
S3251000382024340F460E460B46CAC42C3CA1616161D16A2161916AE160566A00210B464AC42D
S32510003840143C116A616006212160B44922460B683933FF330146FEF758FFA86A2063686AAE
S32510003860E062286AA062E8696062A86920626869E0612869A061E8686061A86820616868A0
S32510003880E0602868A060E96A0C2003C4F0BDF0B50C461546002124340F460E460B46CAC4FC
S325100038A01C3C4AC4243CD16A6161916A2161516AE160136A002205210EC498490C3C22468E
S325100038C00B683933FF330146FEF765FD00201C3407460646034602460146CFC4343CA0613E
S325100038E0E86A6061ED6A00231A46194605202FC4F0BD70B59BB00446894908681A90216872
S325100039000131192905D200238800035101311929FAD3824D0D910DAA69462046FFF7BDFE1C
S325100039202E6833463933FF336A4621462046FEF7ECFE0DAA69462046FFF712FF33463933B0
S32510003940FF336A4621462046FEF7DFFE0DAA69462046FFF761FF33463933FF336A46214680
S325100039602046FEF718FD0DAA69462046FFF78FFF2B683933FF336A4621462046FEF70BFDC6
S32510003980674A1A981168884201D008F055FD1BB070BD70B505460E460468A40022460846CE
S325100039A0002108F018FDA019421E012328682C1D83420DD801CC1070000A511E0870000ABB
S325100039C0CA1E9070000A5070286801338342F1D970BD70B500230B604B60282314180A467A
S325100039E0013C0833202B07D2267815689E40354315608442F4D809E00D68002301350D6079
S32510003A0053602678566004328442E9D80846FEF7B2FC70BDF0B5DEB0019200910746404981
S32510003A203E4C08685D90002050900290012B54D83C4850A99B001D587120FF3025602A584B
S32510003A402E180098FFF7C5FF381C4ED0326802A9FFF7BFFF32680FA9D019FFF7BAFF012042
S32510003A601D901C9050A939204019FF30FEF7E8FD002847DD50AA02A929A80546FFF716F911
S32510003A80206839231A18FF32294668310846FFF75BFA294628462A4668320123FEF711FF18
S32510003AA02A4668322946343108460123FEF709FF01992846FFF76DFF20687123FF33C158D2
S32510003AC00198091828463430FFF763FF14485D9B00240568AB421DD01AE013485D9B206060
S32510003AE008686124834215D012E09C22294602A808F08CFC50A939204019FF30FEF7A0FD5C
S32510003B000028B7DC06485D9B91240068834201D008F092FC20465EB0F0BD00BF4C1600080B
S32510003B2058150008005F0110185C0110F0B5EEB0044668461EC075A805787448744C00686E
S32510003B406D9000202B9038906090012D00D984E0AD007048002704972D58256052971946DB
S32510003B6004A8FFF716FF739952A8FFF712FF25687126FF36AA5974982BA9FFF72AFFAA590D
S32510003B80019838A9FFF725FFAE59009AB24200D9321C039860A9FFF71CFF389E002E55D0E1
S32510003BA038A93926FF36A819FEF74AFD00284DDB38AA294604A80546FFF778F8206882195C
S32510003BC0294668310846FFF7BFF9294628462A4668320123FEF775FE2A466832294634317A
S32510003BE008460123FEF76DFE21689C312846FEF74BFE0498002829D02BAA294652A80223BB
S32510003C00FEF75FFE529D0D2D07D052AE01353560AD00AF5135680D2DF8D160AA52A90846D1
S32510003C20FEF720FC21689C3152A8FEF72DFE22689C3238A945A8FFF787F945AA52A9084619
S32510003C400223FEF73EFE529800280FD12F486D9981270068814218D015E02F4820602B486F
S32510003C606D996127006881420FD00CE0029904A8FFF78FFE739952A8FFF78BFE23486D99EA
S32510003C800068814201D008F0D7FB38466EB0F0BDF0B598B004460D4616461C49086817909D
S32510003CA01B48012B04D81B499B000027595801E01949612701600921684608F029FC092161
S32510003CC009A808F025FC12A8052108F021FC202269462046FFF77DFE202209A92846FFF7EF
S32510003CE078FE09AA694612A80123FEF7EAFD314612A8FFF74EFE054B17991A68914201D083
S32510003D0008F09AFB384618B0F0BD00BF581500084C160008005F0110185C0110000000BFBB
S32510003D2070B53A4C204601F06FF8012803D12046002101F065F8364A012109041068884340
S32510003D401060204601F052F8012851D12078411CC9B2204601F054F82078052848D82D4884
S32510003D602D4A031F1968914200D0002000283FD005682E46183629493046042208F01DFBCC
S32510003D80002835D171790804B17909020843F17901431D4843781A0483781B02C0781A43D0
S32510003DA01043814224D909208001281801794279090612041143827912021143C279114350
S32510003DC0027A437A12061B041A43837A1B02C07A1A4310434A19821841182846012300F024
S32510003DE039FA002804D100F01DF80D4828588047074A0121090410680843106020460021A2
S32510003E0000F0FEFF70BD00BF800100108408000800002440540800174B65793228600110C3
S32510003E200404000001B40248844601BC6047C046091400082C4A2D49106800090001084353
S32510003E4010602B4A01201060704730B5294B994201D1042A19D0284CA14214D38B0712D14F
S32510003E60002A10D093070ED1244B5518013D9D4209D8A04209D9984207D21418013C9C4211
S32510003E8001D8830701D0102002E01D4B00F0D9F830BD00B51749884209D01849884204D2F7
S32510003EA01549884201D3410501D0102002E0144900F068F800BD00B50E4A904201D104297F
S32510003EC00FD00D4A90420AD3820708D1002906D08A0704D1094B0A18013A9A4201D9102089
S32510003EE001E000F024F900BD00002440010051000010224080FF011400000014008000149D
S32510003F002C60011070B509235B0699421AD31A4CCB0517D1131C15D0234013D1174B55182C
S32510003F20013D012676069E19B5420BD801252D07A84209D9984207D21518013D9D4201D8FD
S32510003F40044001D0102002E00D4B00F07AF870BD00B50A49012252068918884205D209214E
S32510003F604906884201D3410401D0102002E0044900F008F800BD00BFFF010000000003104A
S32510003F8038600110F0B584B00391044601256946072000F02DF9009A002A01D40028F6D111
S32510003FA001A9072000F02CF9019A002A02D40028F6D143E00399884F0868884E01680268CC
S32510003FC02A430260864D8748029128606C60FF203870284600F01CF9041C1ED0B0780828D3
S32510003FE022D1284600F014F9041C12D12868052252079042039A38701068029A01D1002419
S3251000400000E0012402600021072000F009F9204315E0B0780828E4D006E028683870052240
S325100040205207841A00D00124039A00211068029A0260072000F0F4F82043C5B2284604B04B
S32510004040F0BDF0B588B0044605A80D4634C01F46012500266946072000F0CAF8009B002B83
S3251000406001D40028F6D101A9072000F0C9F8019B002B02D40028F6D156E03B685A4918685C
S325100040801C682C431C600490554C03910698BA683118039808F0BAF9544B012023607B685D
S325100040A0FF30034307996360731803994A48A360E160FF230370494D204600F0A9F80028CB
S325100040C01AD0AB78082B1FD1204600F0A1F800280ED14149236805200B7040079842BB68AB
S325100040E001D1002500E00125F618002D10D012E0AB78082BE8D007E03749236805200B7000
S325100041004007C01A00D00120BB68F618051E02D105988642BAD33B68049A1A60002107205B
S3251000412000F07EF80543EDB2284608B0F0BDF0B582B006460F4601256946072000F058F895
S325100041400099002901D40028F6D101A9072000F057F80199002902D40028F6D138E0204CA7
S325100041601D4D1520400620606660B80801380004000CA060FF202870184F204600F048F841
S32510004180061C18D0B87808281CD1204600F040F8061C0CD12068287005214907461A00D05F
S325100041A001260021072000F03BF8304311E0B8780828EAD006E02068287005214907461AFD
S325100041C000D001260021072000F02AF83043C5B2284602B0F0BD00BF6416000870160008F2
S325100041E0583C000800010014683C00080001000601B40248844601BC6047C046BB0A000845
S3251000420001B40248844601BC6047C046910B000801B40248844601BC6047C0466D0D0008FC
S3251000422001B40248844601BC6047C046270B000801490020087070476516000830B5044CAA
S32510004240A360E271A171A08025680135256030BD68160008F0B583B00190029117461C4848
S325100042601C4C012500680090012B2ED307D0032B10D02AD201982E07B04226D311E026467E
S32510004280154C07F0AEFD002808D10198134CB0421BD306E0092676066A06A4180198B042E4
S325100042A013D3029801994218A2420ED2B7420CD3EA19FF32A24208D8094B68463A46D0C8C6
S325100042C039463046A446E0474540284603B0F0BD4020001700000310000021100080101014
S325100042E00864001700B507F065FF01F0F6FF00F05BF800BD10B5019C72B6044908680221C5
S3251000430008430249086002F03BF801E0A080264062B6204600F050F810BD10B583B0046816
S32510004320002C05D101F0A3FE06F0FBFF03F0F7F90021042002F003F9204600F0A3FEF7E7F8
S3251000434000B501F053FE00BD00B584B0012002F0AEF800F039F8F9E700B58100081A0F4940
S32510004360C0000818042102F0ABF800BD00B50C48012102F0B3F800BD00B50021012002F062
S32510004380DEF800BD00B50748022102F0A7F800BD00B50021022002F0D2F800BD401800082E
S325100043A0701800085818000801B40248844601BC6047C0462109000801B40248844601BCF4
S325100043C06047C0461116000801B40248844601BC6047C04609140008064900200B1F1A6878
S325100043E0054B9A4200D00146002902D00868C007C00F7047940800174B657934000000B5E7
S325100044000E4A10680002000A03218907084310600B4A082010600B4A10600B4A1068072293
S32510004420904303221043084A0121C907106010680843106000F00AF800BD00BF00E400E002
S3251000444080E200E000E100E0B480204030B583B0C94A1068C94A009029241068C84A019001
S32510004460E4011068C74A0290002015680DF0C6F801200DF0C3F800980122104300902851DE
S3251000448001982C19FF21C9438843BF4908436060BE4C019002987F21090288430321490303
S325100044A00843029028510DF0CAFCB94A0020107003B030BD00B501200DF0A0F800BD00B5AD
S325100044C000200DF09BF800BDB14A1178081C00D001207047AE49002008707047F0B594B0DA
S325100044E00D4616461F46AB49AB4C0A681392002222706278002A12D102AA102109F00EFA17
S325100045003B462A4610200090314602A809F06DFAA0482478139A03689A420BD008E00020F8
S325100045206070022020702478139A0B689A4201D007F082FF204614B0F0BDF0B596B00F46EB
S3251000454016461D46934A944C1168159101210291002121706178002912D104AA102109F086
S32510004560DDF902A8019064302B4600783A460090314604A809F072FB207800280AD106E07D
S3251000458000206070022020702078002802D10298002809D01C99012008707E4824781599D7
S325100045A0026891420AD007E01C9908707948247815990268914201D007F03EFF204616B041
S325100045C0F0BDF0B582B01E46734C002323706378002B09D1089B019312010092079B324692
S325100045E0C9B209F024F803E00020607002202070207802B0F0BDF0B58CB0174602931D4663
S32510004600644B654C1A680B92002222706278002A15D103AACEB2314609F08CFC1298119BEC
S3251000462001902A4638010090314603A809F0B1F8584824780B99026891420BD008E00020D6
S3251000464060700220207024780B991A68914201D007F0F2FE20460CB0F0BD50B581B04E4CD6
S32510004660002626706678002E05D100930B01102109F0A5FC03E000206070022020702078FF
S3251000468001B050BDF0B581B01646434C002222706278002A2BD10D461F46032806D00528EB
S325100046A00FD0092818D00120207024E00EF0B0FE314628460EF0CCFE069938460EF0A4FF20
S325100046C019E00FF057F8314628460FF073F8069938460FF04BF90EE00FF0FEF93146284605
S325100046E00FF01AFA069938460FF0F2FA03E00020607002202070207801B0F0BD50B5264C97
S32510004700002121706178002920D1661C032809D005280DD0092811D00120207020780028CB
S3251000472018D110E00EF074FE2078002812D10AE00FF020F8207800280CD104E00FF0CCF931
S325100047402078002806D10120307003E00020607002202070207850BD10B50B460E4C002130
S3251000476021706178012928D1032817D005281AD009281DD0217024E08C45011090450110F2
S32510004780944501108C4401100080104088140000751600085815000874160008114618467D
S325100047A00EF056FE0DE0114618460FF003F808E0114618460FF0B0F903E0002060700220BB
S325100047C02070207810BDD0B50B46D44C00272770617801291BD1032807D0661C05280AD0A0
S325100047E009280ED02170377014E0114618460EF00BFF67700EE0114618460FF0B7F86770AC
S3251000480008E0114618460FF063FA377002E00220207067702078D0BDD0B50646BF4C002056
S325100048202070607800280AD10F46F9B230460FF0FBFA012807D120780028F6D003E0002003
S325100048406070022020702078D0BDF0B587B0B44D2C680694B14C002626706678002E14D1E6
S3251000486003AE0C9F3770059131460F9E0490009602930E9B01920D9A01A80BF066FA247823
S3251000488006992A6891420BD008E00020607002202070247806992A68914201D007F0CCFD68
S325100048A0204607B0F0BD50B59C4C002626706678002E02D10CF095FD03E00020607002200D
S325100048C02070207850BDF0B587B0944C002626706678002E10D10F9F119D3E680696109EDC
S325100048E003AF62C70C9F009701930D9B02920E9A102109F0C5FF03E000206070022020709A
S32510004900207807B0F0BDF0B589B00E46834C002121706178002914D1159F06A9DD00A8C142
S325100049200E9F149D02A93346ACC111990191129900910F9B109A102109F0BAFF13980660B2
S3251000494003E00020607002202070207809B0F0BDF0B5C4B006460D4602921C4670490868E7
S325100049604390012001906F4807A90346603302680A6042684A6082688A60C268CA601030C9
S3251000498010318342F3D168481FA90346303302680A6042684A6082688A60C268CA60103083
S325100049A010318342F3D161482BA90346303302680A6042684A6082688A60C268CA6010305E
S325100049C010318342F3D15A4837A90346303302680A6042684A6082688A60C268CA60103039
S325100049E010318342F3D14D484178002930D122461FA9284607F041F822462BA9601907F0E5
S32510004A003CF82246029837A907F037F807AD2F192BAA03A81FA9A6C02346499837AAC0B2FD
S32510004A20009003A905A80AF005FC002814D122463146284607F021F82246A119384607F07B
S32510004A401CF8374A43990024136899420CD009E00021417002210170314A4399019C1368BB
S32510004A60994201D007F0E8FC204644B0F0BD10B581B0304A304C11680A59009264181207A3
S32510004A80120F08239A1A904206D9216800910907090F591A8842F8D801B010BD81B0254AE2
S32510004AA01068254A815800911218090703D0106800900007FBD101B0704718490120087045
S32510004AC07047F0B5ACB00090019302920C4607461348124D01682B9100212970402236215F
S32510004AE003A8064607F077FCE30834D032783878424032707278787842407270B278B8783A
S32510004B004240B270F278F8784240F27032793879424032717279787942400FE074160008BD
S32510004B205815000864610110D460011004610110346101108C440110441000007271B27970
S32510004B40B8794240B271F279F8794240F27108370836013BCAD163075B0F07D031783A784E
S32510004B605140317001370136013BF7D16978002957D10EF04DFC402103A80EF069FC0199F8
S32510004B8002980EF065FC202123A80EF03DFD40225C2113A807F01FFC13A90098E60823D0E1
S32510004BA00F7803785F400F704F7843785F404F708F7883785F408F70CF78C3785F40CF70DF
S32510004BC00F7903795F400F714F7943795F404F718F7983795F408F71CF79C3795F40CF71B3
S32510004BE008300831013EDBD16607760F07D00C78027854400C7001300131013EF7D10EF004
S32510004C0007FC402113A80EF023FC202123A80EF01FFC319820210EF0F7FC297800290BD07D
S32510004C2005E00221297029786B70002904D020223198002107F0CFFB05482C782B9900683A
S32510004C40814201D007F0F8FB20462CB0F0BD00BF5815000800B500F029F800281BD10E4A6B
S32510004C600E491068084001218905084310600C4A042010600B4A10600B4A10680722904324
S32510004C8002221043084A0121C907106010680843106000F013F800BD00E400E0FFFF00FF27
S32510004CA080E200E000E100E00080204001B40248844601BC6047C0460F0A000801B40248A8
S32510004CC0844601BC6047C046330E000872B6144801680129FBD113481349016001201349C9
S32510004CE008600220086000201149086003200F490860FEE7704700B50748084A031F196852
S32510004D00914200D0002001210843012800D08047FFF7DCFF00BD00BFA40800174B6579351F
S32510004D2004132040401320400200FA05908026400880264000B5022802D1FFF723FB03E025
S32510004D40012801D1FFF712FB00BD00B5022802D1FFF71EFB03E0012801D1FFF70DFB00BD28
S32510004D607047000000B508F01EFA002814D108F092FA002800D0FEE708F014FB00280CD028
S32510004D80064908684007400F032801D0042800D1FEE7022801D0FEE7FEE700BDC420204004
S32510004DA030B51E4C1E4A1F492068C50F1E481368834202D10B68834206D0106008601B4A9E
S32510004DC01B48002107F007FB2068C00F012D0CD001280AD12068002807D521680122D207CA
S32510004DE09143216021680029F7D430BD4178C9430078C9B2884201D0002000E001207047B3
S32510004E000170C94341707047014602780020002A03D14978002900D1012070470C002140B8
S32510004E2080080008A4080008B89FA28A200000008408000830B5294D044600F055F80028D7
S32510004E4016D0A97808291DD1204600F04DF800280AD1216822480A0F120705235B079A42ED
S32510004E600ED0016001200DE0A9780829ECD009E021681B480A0F120705235B079A42F0D193
S32510004E800260002030BD70B504460E46144DFF2028602168080E282810D01248016061686F
S32510004EA04160A1688160E168C160FFF7C3FF2168090E1F2909D0296831600DE02046FFF703
S32510004EC0B9FF2168090E1F29F5D106490A6832604A6872608968B16070BD00BF7016000803
S32510004EE0781600087C16000801B40248844601BC6047C0466D0D000830B500210A463D4DD7
S32510004F00835CAC5CA34200D001210132D2B2072A01D20129F4D1084630BDF0B588B001906A
S32510004F20029135480268079201260025FFF754FA3249334F0870AA000298D459002806D1D3
S32510004F4020461030FFF7D8FF002826D108E001225206A41820461030FFF7CEFF00281CD10C
S32510004F6026480278002A0BD11022002103A807F032FA102203A9204607F01FFA00280CD0B4
S32510004F80E269234620339A4207D3A3691B19043B9A4202D80198002605700135EDB2062DCD
S32510004FA001D2002EC7D11448079A03689A4201D007F042FA304608B0F0BD70B581B005467E
S32510004FC00E46012468460330FFF7A7FF00280DD16A46D0780A498000002E405802D12860D3
S32510004FE0304604E06106401828600024204601B070BD00BFE4610110581500088C1600085E
S32510005000EC61011030B588B005461B49086807901A4968460A6800924A6801928A68029269
S32510005020C968174A039104A9136804935368059392680692FFF727FF002811D1E87204A963
S325100050402846032207F0E2F905A90822E81C07F0DDF90948079900240268914208D005E01D
S325100050600548079901240268914201D007F0E4F9204608B030BD00BF581500080462011070
S325100050801462011000B506F06EF900BD00B5FFF732FE00BD70470000F0B588B003460D46DC
S325100050A005A800242CC00598C008049055D006980546079B06461A4620320392074602464C
S325100050C00146E030C035A036803760320190069840312030029006B4089A600119688150BE
S325100050E0811858684860049998680860D86848600131FF310491186906BC086058694860A1
S3251000510098691060D86901315060FF310132FF3204B4186A049A3860506878600137FF37E3
S32510005120986A40323060D86A04927060186B029A2860586B01366860986BFF361060D86B59
S3251000514001355060FF35501CFF3040330290059808340138059004BCBDD1059845076D0F25
S325100051600ED00798E2008218069863011B186419106818605068586020330832013DF7D17B
S32510005180E4B225460823181B0790082C01D3002107910798C00805904AD05548E21D069BEF
S325100051A05201D118A21D5201D618621D52010291D7181946231D5B015A18E31C5B01591810
S325100051C003B4A31C08995B0158180590631C5B015818069003BC4368046802B407996801CB
S325100051E044504018059943600C604B600120FF300918059104990C604B600918049102BC26
S325100052000C604B60091802B4146053603C607B6012183F180399346073600C604B60361803
S3251000522009180391069908350139069102BCD4D107984207520F0AD006986B011B182C48BF
S3251000524022C80E461E605D602033013AFAD108B0F0BD00B5274928480322FFF71DFF00BD78
S32510005260000070B500230C46C90833D05A0115186A680126F607B2436A605A1C5201151877
S325100052806A68B2436A609A1C520115186A68B2436A60DA1C520115186A68B2436A601A1D62
S325100052A0520115186A68B2436A605A1D520115186A68B2436A609A1D520115186A68B24341
S325100052C06A60DA1D520115186A68B2436A6008330139CBD16207520F09D05901081841680F
S325100052E00123DB07994341602030013AF7D170BDC4610110CC610110007E234030B5174BF9
S32510005300002906D1100A1206D20DD15A414088B211E0057801390130140A6A401206D20DE8
S32510005320D25A624092B289B20029F2D1100A1206D20DD15A484030BD30B5D24300290BD06F
S32510005340074D037801390130140A53401B069B0D5A5962400029F4D1D04330BD606201106D
S3251000536060640110000030B582B00546016808036A68000BD243914222D000900446964AFB
S3251000538068460421FFF7BAFF00990005014328680091814210D06868C0430403240B019431
S325100053A08D4A01A80421FFF7A9FF0199000508436968C943884201D1204601E00020C043C7
S325100053C002B030BD70B5054616460C460846FF2107F001F881480121C9034018854211D2E3
S325100053E0002E0FD028460421FEF765FD002804D029462046042207F009F8043E04350434FE
S32510005400002EEFD170BD00000000F0B585B06D4668800E4614461F4683B20193304611463D
S325100054201A46FFF76BFF03AA019950801180043A54806B4C69486188118023880822083BE2
S32510005440238021799BB249034118C918103102A8FEF7FBFC0546042F0CD921795F483A1F52
S32510005460490341186388103159180431B01CFEF7ECFC054304A869460231022206F0C6FF41
S32510005480314604AEB01C022206F0C0FF2179534B3046490359186288103151180422FEF70E
S325100054A0D4FC054306D101998900091922790A812288CA806188C91961800620002D00D1B8
S325100054C0284605B0F0BDF0B585B001921D46454B08398000C41889B26088404F0291400361
S325100054E0C619103620880822811903A806F08EFF03A84088031C21D003AB188883190093D7
S3251000550003AB0198188068033F1810371846029B0822F918FEF799FC03AB5E880236B0074A
S32510005520800FB6B202D0301A061DB6B23246019B0098F918FEF789FC029B01E0064605466B
S3251000554023806580304605B0F0BDF0B5234940030C180126F60231462046FEF7ACFC00289C
S3251000556007D002252046FEF794FC013D01D00028F8D13146A7193846FEF79DFC002807D0EA
S3251000558002253846FEF785FC013D01D00028F8D131460120000327183846FEF78CFC0028DD
S325100055A007D002253846FEF774FC013D01D00028F8D131460320C00224182046FEF77BFC8A
S325100055C0002807D002252046FEF763FC013D01D00028F8D1F0BD0000FFFF00000000001416
S325100055E090160008961600080000F0B58CB0B24DB04A002426460595107903920130870752
S32510005600BF0F3846FFF7A1FF05220399049206310291029AB000805A00280BD03B4622465D
S3251000562029463046FFF74FFF002803D02418A4B2083DADB2701C029A8000805A00280BD075
S325100056403B4622462946701CFFF73DFF002803D02418A4B2083DADB2B01C029A8000805A2B
S3251000566000280BD03B4622462946B01CFFF72BFF002803D02418A4B2083DADB2F01C029AF4
S325100056808000805A00280BD03B4622462946F01CFFF719FF002803D02418A4B2083DADB2F4
S325100056A0301D029A8000805A00280BD03B4622462946301DFFF707FF002803D02418A4B260
S325100056C0083DADB2701D029A8000805A00280BD03B4622462946701DFFF7F5FE002803D0C1
S325100056E02418A4B2083DADB2B01D029A8000805A00280BD03B4622462946B01DFFF7E3FE9C
S32510005700002803D02418A4B2083DADB2F01D029A8000805A00280BD03B4622462946F01DD7
S32510005720FFF7D1FE002803D02418A4B2083DADB230460830029A8000805A00280CD03B4634
S325100057402246294630460830FFF7BDFE002803D02418A4B2083DADB230460930029A800001
S32510005760805A00280CD03B462246294630460930FFF7A9FE002803D02418A4B2083DADB260
S3251000578004990A360139049100D042E70AA94B4E039B082205981B79183004935843059BEF
S325100057A03018C0181030FFF70DFE0AA8FFF7DBFD3E49884205D00020C0430490002F0FD007
S325100057C011E0059808221830049B0AA958433018FFF7F8FD0AA8FFF7C6FD0490002F02D192
S325100057E004980130049006A8022106F091FE049B1803000B00902E4A68460421FFF77EFDCB
S32510005800009900050143C8430790059818307843009106913618314606A80422FEF715FB88
S3251000582007A8311D0422FEF710FB08A8022106F06FFE1E481E4A019001A80421FFF75EFD7B
S3251000584001990005014308910191C843059B0990F6181036314608A80422FEF7F6FA09A8A9
S32510005860311D0422FEF7F1FA039B00205880059818805879013058711F71781E8607B60FB0
S325100058803046FFF762FE701E8607B60F3046FFF75CFE701E8007800FFFF757FE039B0120D2
S325100058A058711D805C800CB0F0BD00BFA7BE0100FFFF000090160008E81F0000000000143B
S325100058C0F0B582B0634940030D186946082228460830FFF777FD6846FFF745FD064601307B
S325100058E004D0B0000121C90708430EE05A4E002410350821771A7819FEF7DDFA002801D1C1
S32510005900304602E03E1EF4D1204602B0F0BDF0B582B06946514E4F4DFF240822A819FFF76E
S3251000592051FD6846FFF71FFD4D49274688420BD1082269462846FFF745FD6846FFF713FD67
S32510005940411C01D004460027694608220120400328188019FFF736FD6846FFF704FD404925
S32510005960884212D169460822012040032818FFF729FD6846FFF7F7FC411C06D0FF2C00D105
S325100059800446A04201D104460127694608220120800328188019FFF715FD6846FFF7E3FCA0
S325100059A02F49884212D169460822012080032818FFF708FD6846FFF7D6FC411C06D0FF2C20
S325100059C000D10446A04201D104460227694608220320400328188019FFF7F4FC6846FFF7CD
S325100059E0C2FC1F49884211D169460822032040032818FFF7E7FC6846FFF7B5FC411C05D0E0
S32510005A00FF2C00D10446A04200D10327384602B0F0BD000070B515460F4E0E4A05244003CF
S32510005A201018411810310120C0031018814203D20822284606F0EAFC2888B04208D2A988C9
S32510005A40322905D2800703D16888B04200D20024204670BD00000014E81F0000F81F000006
S32510005A60A7BE0100F0B587B00290039114460A88322A3DD2DD498C42009139D2DC4B029800
S32510005A8004AD4103581801902A4602982146FFF7C1FF002827D1D74EAA889200925B002AB3
S32510005AA021D106A9019A2B8810329F1838460422FFF788FC06A8AA880388934213D16988B5
S32510005AC0B81CFFF71BFCEA8890420CD1AA8892009319029858800398B452028801320280EC
S32510005AE092B2322A04D208340098A4B28442CBD307B0F0BDF0B58FB00446154603AA184694
S32510005B0033C2BD4D14986C882F883C1B844200D399E02C790DA8022106F0FAFCB8080090F7
S32510005B20B64A68460421FFF7E9FB009E000506430D960096F643AE4F0E966403E6193446C3
S32510005B40083421460DA80422FEF77FF90EA8211D0422FEF77AF9AA4C0BA908223019FFF7AF
S32510005B6031FCA84C0BA8FFF7FEFBA04205D000246879E44303280CD360E008220BA93046CB
S32510005B80FFF720FC0BA8FFF7EEFB04466879032854D22E790136B007800F2871FFF7D5FC4B
S32510005BA02E79002E00D1013407A8022106F0B0FC2003000B0190914A01A80421FFF79EFB89
S32510005BC0019C0005044301940794E44308947403E4198C4F214607A80422FEF736F908A874
S32510005BE0211D0422FEF731F909A8022106F090FC0297824A02A80421FFF780FB029F00056B
S32510005C00074302970997FF430A977D4F09A8E419764F21460422FEF718F90AA8211D042220
S32510005C20FEF713F900246C802E716E792F8001366E71149904208F4210D308E0FFF7D5FCBE
S32510005C4028886C88041B149904208C4206D303AA33CA2A4603462046FFF7D7FB0FB0F0BDF6
S32510005C6030B582B0051C644C6080208017D46A462079A9B2FFF7CEFE00280BD16A465188C8
S32510005C8002318807800F01D0081A011D10880818608004E05548854201D10020608002B028
S32510005CA030BDF0B585B0FEF7C5F8534EC822B01D002106F090FBFFF72AFE30710446002032
S32510005CC070713060FF2C39D0694648802046FFF7F7FD029082B2019203AD454F019A69465B
S32510005CE002312046FFF7BEFE707901307071601E8407A40F2046FFF7E3FD81B2019129461C
S32510005D0008223F4B6003C019C018FFF75BFB2846FFF729FB3B4988420DD1294608226003A9
S32510005D20C019FFF74FFB2846FFF71DFB013002D070790428D2D30298FFF792FF05B0F0BD78
S32510005D40F0B588B003900E4615462B4C2179FF2968D10020FFF7F9FB04A8022106F0D8FBFA
S32510005D60264A0121019101A80421FFF7C7FA019900050143019104911D4FC94305913946CD
S32510005D8004A80422FEF761F805A8391D0422FEF75CF806A8022106F0BBFB1A49174A029187
S32510005DA002A80421FFF7AAFA02990005014302910691C9430791124906A879180422FEF7FD
S32510005DC044F80F4907A8791804310422FEF73DF800216180054921800021217161790131A4
S32510005DE061710320FFF7B1FB0EE000BFE81F0000000000149616000890160008FFFF0000CE
S32510005E00F81F0000A7BE01000220FFF79EFB0120FFF79BFB01216171AF1CB907890FBFB209
S32510005E201BD11DE06279042A12D101398F07BF0F3846FFF78AFB791E8F07BF0F3846FFF771
S32510005E4084FB791E8807800FFFF77FFB01216171AF1CB907890FBFB202D0791A0F1DBFB2FE
S32510005E603C46283400943B462A4603983146FFF741FE062806D100943B462A4603983146C6
S32510005E80FFF738FE08B0F0BDF0B585B0054601911746118800201080254AA8000091835A79
S32510005EA08618002B11D002A9224C7088082240030019C0181030FFF785FA03AC2088A842BD
S32510005EC01BD102A84488002C01D101202DE00098A04201D2022028E07088164B4003C01833
S32510005EE002AB04A91A881030161830460422FFF769FA04AB1888A84201D0052015E002AB5C
S32510005F005C8822460198B11C06F080FA2A4601982146FFF7F3F903AB5A88904201D00320A1
S32510005F2003E002A948883880002005B0F0BD0000961600080000001410B599420ED2CB0898
S32510005F404C07640F8021E140012A03D1C25C0A43C25403E0CA43C15C1140C15410BD30B5FE
S32510005F600023DB430025CA1DD408A54211D2425D002A0BD0EB00802014060AD4013340106D
S32510005F8004461440FAD08B4207D304E00135A542EDD38B4201D30023DB43184630BD0000EE
S32510005FA010B5FFF77EFEAE480722002106F013FAAC48052400210122827001808271818089
S32510005FC082720181827381818274018282758182827601838277222381831A5426230184D1
S32510005FE01A5481842830013CE6D110BDF0B581B09C499B4F00919C4C0120FEF7A6FE012006
S32510006000FEF7AEFE32213846FFF7A9FF05463228F2D20146384632230022FFF78DFF00999A
S32510006020A8000A5A0E18E8000159A8B2FFF788FE0421002802D1308800280BD1B1700220E1
S32510006040FEF778FE32213846FFF789FF05463228D2D2DEE70320B0700220FEF76BFE32214C
S325100060603846FFF77CFF05463228C5D2D1E7F0B587B07D4D00260A272C4608340420102325
S325100060800C220821019102A99DC16F460237754C6B46A8883A46588029683046FFF7F4FE21
S325100060A0002806D1B0002018032181706946488804E0B0002018042181700020B1006B46EB
S325100060C00853A8893A465880A968701CFFF7DCFE0299002805D1081903218170694648880B
S325100060E003E0081904218170002002996B466052A88A3A4658802969B01CFFF7C5FE019917
S32510006100002805D10819032181706946488803E0081904218170002001996B466052A88B4C
S325100061203A465880A969F01CFFF7AEFE0399002805D10819032181706946488803E00819DE
S3251000614004218170002003996052059B3A46988B6B465880059B28330593296A301DFFF770
S3251000616093FE28350499002805D10819032181706946488803E00819042181700020049AF3
S3251000618001A9A052143204920DC914331430114601AA14310BC2069905360139069100D081
S325100061A076E707B0F0BD10B502463228012016D22D4CD300E3189B88994210D8294B900067
S325100061C01818022484709000C1523223244811460122FFF7B1FE0120FEF7ACFD002010BD30
S325100061E010B581B0322819D21F490446C000081880886B4658809A1CE00041582046FFF7A0
S3251000620043FE1849A200002804D1881803218170002004E0891804228A7000E0012001B0FB
S3251000622010BD322804D20F4980000818807800E00520704730B5012432280ED209490024E5
S3251000624080000D18A878022807D1FEF77EFD0220FEF786FDA8780228F7D0204630BD00BF34
S3251000626060170008681700086468011010B583B0044672B60148C460FEE700003018000819
S3251000628010B50279014C002A14D109E0301800086E696C5F66696E645F74687265616400F9
S325100062A072B601A0E060FEE763685363685265616479490063682268934203D972B6054838
S325100062C0E060FEE7816000210171C160984200D2606010BDA8620010000070B50C4D1149C3
S325100062E028462C461034583084420ED20E4A0B6863614B68243BCE681E610E695E61236027
S325100063001A62183414318442F1D3084860610FE0301800086E696C5F72656164795F616C9D
S325100063206C0000BF44600110AFC300104029000872B6054A054910680840106028461030D1
S325100063406860286004E000BF20ED00E0FFFF00FFEFF309806169243888420BD272B601A049
S32510006360E860FEE7737461636B206F766572666C6F7700002868214600F006F962B670BD05
S3251000638030B5074D2C46A86810340130A8605835E068002829D92079002815D102E000BF68
S325100063A03018000872B6024902A0C860FEE700BF30180008636853797354696D6572486192
S325100063C06E646C6572490000E0680138E0600CD12079032804D0022802D1A068002101608C
S325100063E00021C9432046FFF74BFF62B6183472B6AC42CDD330BD000010B5024C2168606849
S32510006400206001E030180008EFF309804A692438904203D272B60348E060FEE7606800F044
S32510006420B3F810BDF4690110000030B50A46034C254621685835A94212D101E0301800085C
S3251000644072B601A0E060FEE76368536368476F536C65657054696D656F757453000000BFA7
S32510006460CA600871224610321379002B0ED162602260EFF309804B69243898420DD272B683
S325100064800148E060FEE700BF646300101832AA42EAD972B60448E060FEE7104600F074F89E
S325100064A02068806830BD000048640010000010B5044672B621460120FFF7B7FF62B610BD5D
S325100064C000B502690A4301790261042905D18168114002D00021FFF7D3FE00BD30B5044679
S325100064E00D4603E0000000000000000072B62069284321792061042906D1A168084003D0F1
S3251000650020460021FFF7BCFE034C60682168814213D0206002E000BF30180008EFF309800C
